:1000D6001208022C302020203134303120202030EC
:0400E60030300D00A9
:0800FE008F993099FDC299228F
:1000EB001200BDFF600C1200FE740129F9E43AFA0C
:0300FB0080EE2272
:10008F00758920758DFD758BFD759850E4F587D2B8
:10009F00ACD28ED2AF7B007A0079081200EBE4FF6E
:0E00AF00FE0FBF00010EBE30F8BFD4F580E793
:03000000020003F8
:0C000300787FE4F6D8FD75811902004AF0
:1000BD00BB010689828A83E0225002E722BBFE0241
:0900CD00E32289828A83E4932274
:10000F0002008FE493A3F8E493A34003F68001F278
:10001F0008DFF48029E493A3F85407240CC8C333F2
:10002F00C4540F4420C8834004F456800146F6DFC1
:10003F00E4800B01020408102040809000D6E47E7B
:10004F00019360BCA3FF543F30E509541FFEE493B6
:10005F00A360010ECF54C025E060A840B8E493A37D
:10006F00FAE493A3F8E493A3C8C582C8CAC583CAA8
:10007F00F0A3C8C582C8CAC583CADFE9DEE780BE60
:0100EA000015
:00000001FF
