BL51 BANKED LINKER/LOCATER V6.22                                                        10/23/2014  03:17:05  PAGE 1


BL51 BANKED LINKER/LOCATER V6.22, INVOKED BY:
C:\KEIL\C51\BIN\BL51.EXE main.obj TO comtest


MEMORY MODEL: SMALL


INPUT MODULES INCLUDED:
  main.obj (MAIN)
  C:\KEIL\C51\LIB\C51S.LIB (?C_STARTUP)
  C:\KEIL\C51\LIB\C51S.LIB (?C?CLDPTR)
  C:\KEIL\C51\LIB\C51S.LIB (?C_INIT)


LINK MAP OF MODULE:  comtest (MAIN)


            TYPE    BASE      LENGTH    RELOCATION   SEGMENT NAME
            -----------------------------------------------------

            * * * * * * *   D A T A   M E M O R Y   * * * * * * *
            REG     0000H     0008H     ABSOLUTE     "REG BANK 0"
            IDATA   0008H     0012H     UNIT         ?ID?MAIN
            IDATA   001AH     0001H     UNIT         ?STACK

            * * * * * * *   C O D E   M E M O R Y   * * * * * * *
            CODE    0000H     0003H     ABSOLUTE     
            CODE    0003H     008CH     UNIT         ?C_C51STARTUP
            CODE    008FH     002EH     UNIT         ?PR?MAIN?MAIN
            CODE    00BDH     0019H     UNIT         ?C?LIB_CODE
            CODE    00D6H     0015H     UNIT         ?C_INITSEG
            CODE    00EBH     0013H     UNIT         ?PR?_SEND_STRING?MAIN
            CODE    00FEH     0008H     UNIT         ?PR?_SEND_CHAR?MAIN



OVERLAY MAP OF MODULE:   comtest (MAIN)


SEGMENT
  +--> CALLED SEGMENT
---------------------
?C_C51STARTUP
  +--> ?PR?MAIN?MAIN
  +--> ?C_INITSEG

?PR?MAIN?MAIN
  +--> ?PR?_SEND_STRING?MAIN

?PR?_SEND_STRING?MAIN
  +--> ?PR?_SEND_CHAR?MAIN



SYMBOL TABLE OF MODULE:  comtest (MAIN)

  VALUE           TYPE          NAME
  ----------------------------------
BL51 BANKED LINKER/LOCATER V6.22                                                      10/23/2014  03:17:05  PAGE 2



  -------         MODULE        MAIN
  C:0000H         SYMBOL        _ICE_DUMMY_
  D:0090H         PUBLIC        P1
  D:00B0H         PUBLIC        P3
  I:0008H         PUBLIC        trdata
  B:00A8H.7       PUBLIC        EA
  D:00A8H         PUBLIC        IE
  B:00A8H.4       PUBLIC        ES
  D:00B8H         PUBLIC        IP
  B:0098H.1       PUBLIC        TI
  C:008FH         PUBLIC        main
  C:00EBH         PUBLIC        _send_string
  C:00FEH         PUBLIC        _send_char
  D:0099H         PUBLIC        SBUF
  D:0087H         PUBLIC        PCON
  D:0098H         PUBLIC        SCON
  D:0089H         PUBLIC        TMOD
  D:0088H         PUBLIC        TCON
  D:008DH         PUBLIC        TH1
  D:008BH         PUBLIC        TL1
  B:0088H.6       PUBLIC        TR1
  D:00C8H         PUBLIC        T2CON
  D:00D0H         PUBLIC        PSW
  -------         PROC          _SEND_CHAR
  D:0007H         SYMBOL        hex
  C:00FEH         LINE#         21
  C:00FEH         LINE#         22
  C:00FEH         LINE#         23
  C:0100H         LINE#         24
  C:0103H         LINE#         25
  C:0105H         LINE#         26
  -------         ENDPROC       _SEND_CHAR
  -------         PROC          _SEND_STRING
  D:0001H         SYMBOL        string
  C:00EBH         LINE#         28
  C:00EBH         LINE#         29
  C:00EBH         LINE#         30
  C:00F1H         LINE#         31
  C:00F1H         LINE#         32
  C:00F4H         LINE#         33
  C:00FBH         LINE#         34
  C:00FDH         LINE#         35
  -------         ENDPROC       _SEND_STRING
  -------         PROC          MAIN
  -------         DO            
  D:0006H         SYMBOL        j
  -------         ENDDO         
  C:008FH         LINE#         37
  C:008FH         LINE#         38
  C:008FH         LINE#         42
  C:0092H         LINE#         43
  C:0095H         LINE#         44
  C:0098H         LINE#         45
  C:009BH         LINE#         46
  C:009EH         LINE#         48
  C:00A0H         LINE#         49
BL51 BANKED LINKER/LOCATER V6.22                                                      10/23/2014  03:17:05  PAGE 3


  C:00A2H         LINE#         50
  C:00A4H         LINE#         52
  C:00A4H         LINE#         53
  C:00A4H         LINE#         54
  C:00ADH         LINE#         55
  -------         ENDPROC       MAIN
  -------         ENDMOD        MAIN

  -------         MODULE        ?C?CLDPTR
  C:00BDH         PUBLIC        ?C?CLDPTR
  -------         ENDMOD        ?C?CLDPTR

Program Size: data=27.0 xdata=0 code=262
LINK/LOCATE RUN COMPLETE.  0 WARNING(S),  0 ERROR(S)
